:020000040800F2
:100000000000022029450008A90E0008AB0E0008D8
:10001000AD0E0008AF0E0008B10E00080000000091
:10002000000000000000000000000000B30E000807
:10003000B50E000800000000B70E0008B90E000859
:100040007945000879450008794500087945000898
:100050007945000879450008794500087945000888
:100060007945000879450008794500087945000878
:100070007945000879450008794500087945000868
:100080007945000879450008794500087945000858
:100090007945000879450008794500087945000848
:1000A0007945000879450008794500087945000838
:1000B0007945000879450008794500087945000828
:1000C0007945000879450008794500087945000818
:1000D0007945000879450008794500087945000808
:1000E00079450008794500080000000079450008BE
:1000F00079450008794500087945000879450008E8
:1001000079450008794500087945000879450008D7
:1001100079450008794500087945000879450008C7
:1001200079450008794500087945000879450008B7
:1001300079450008794500087945000879450008A7
:1001400000000000000000000000000000000000AF
:100150007945000879450008794500087945000887
:100160007945000879450008794500087945000877
:10017000794500087945000879450008000000002D
:100180007945000879450008794500087945000857
:100190007945000879450008794500087945000847
:1001A0007945000879450008794500087945000837
:1001B0007945000879450008794500087945000827
:1001C0007945000879450008794500087945000817
:1001D0007945000879450008794500087945000807
:1001E00079450008794500087945000879450008F7
:1001F00079450008794500087945000879450008E7
:1002000079450008794500087945000879450008D6
:1002100079450008794500087945000879450008C6
:10022000794500087945000879450008000000007C
:10023000794500087945000800000000794500086C
:100240007945000879450008794500087945000896
:100250007945000879450008794500087945000886
:100260007945000879450008794500087945000876
:10027000794500087945000879450008000000002C
:10028000794500087945000879450008000000001C
:080290000000000079450008A0
:1002980010B5054C237833B9044B13B10448AFF3B8
:1002A80000800123237010BDFC0400200000000022
:1002B8004847000808B5034B1BB103490348AFF38F
:1002C800008008BD00000000000500204847000825
:1002D80080F0004002E000BF81F0004142001FBFF3
:1002E8005FEA410392EA030F7FEA226C7FEA236CFC
:1002F8006AD04FEA1262D2EB1363C1BFD2184140F1
:1003080048404140B8BF5B42192B88BF704710F086
:10031800004F40F4000020F07F4018BF404211F029
:10032800004F41F4000121F07F4118BF494292EA91
:10033800030F3FD0A2F1010241FA03FC10EB0C00BD
:10034800C3F1200301FA03F100F0004302D549424A
:1003580060EB4000B0F5000F13D3B0F1807F06D3F7
:1003680040084FEA310102F10102FE2A51D2B1F1EF
:10037800004F40EBC25008BF20F0010040EA0300E4
:100388007047490040EB0000013A28BFB0F5000F64
:10039800EDD2B0FA80FCACF1080CB2EB0C0200FA1A
:1003A8000CF0AABF00EBC25052421843BCBFD04069
:1003B8001843704792F0000F81F4000106BF80F4E3
:1003C80000000132013BB5E74FEA41037FEA226CA6
:1003D80018BF7FEA236C21D092EA030F04D092F071
:1003E800000F08BF0846704790EA010F1CBF0020A5
:1003F800704712F07F4F04D1400028BF40F0004002
:10040800704712F100723CBF00F50000704700F021
:10041800004343F0FE4040F4000070477FEA226248
:1004280016BF08467FEA23630146420206BF5FEA19
:10043800412390EA010F40F4800070474FF0000319
:1004480004E000BF10F0004348BF40425FEA000CE0
:1004580008BF704743F0964301464FF000001CE088
:1004680050EA010208BF70474FF000030AE000BFDE
:1004780050EA010208BF704711F0004302D540421C
:1004880061EB41015FEA010C02BF8446014600208E
:1004980043F0B64308BFA3F18053A3F50003BCFAA9
:1004A8008CF2083AA3EBC25310DB01FA02FC634456
:1004B80000FA02FCC2F12002BCF1004F20FA02F25D
:1004C80043EB020008BF20F00100704702F1200250
:1004D80001FA02FCC2F1200250EA4C0021FA02F2B1
:1004E80043EB020008BF20EADC7070474FF0FF0CB6
:1004F8001CEAD0521EBF1CEAD15392EA0C0F93EAB1
:100508000C0F6FD01A4480EA010C400218BF5FEA52
:1005180041211ED04FF0006343EA501043EA5111C5
:10052800A0FB01310CF00040B1F5000F3EBF4900BF
:1005380041EAD3715B0040EA010062F17F02FD2AC3
:100548001DD8B3F1004F40EBC25008BF20F00100A6
:10055800704790F0000F0CF0004C08BF49024CEABD
:10056800502040EA51207F3AC2BFD2F1FF0340EA4F
:10057800C250704740F400004FF00003013A5DDCC0
:1005880012F1190FDCBF00F000407047C2F1000201
:10059800410021FA02F1C2F1200200FA02FC5FEAEE
:1005A800310040F1000053EA4C0308BF20EADC7038
:1005B800704792F0000F00F0004C02BF400010F4AA
:1005C800000F013AF9D040EA0C0093F0000F01F057
:1005D800004C02BF490011F4000F013BF9D041EA79
:1005E8000C018FE70CEAD15392EA0C0F18BF93EA7B
:1005F8000C0F0AD030F0004C18BF31F0004CD8D1A5
:1006080080EA010000F00040704790F0000F17BF2B
:1006180090F0004F084691F0000F91F0004F14D071
:1006280092EA0C0F01D142020FD193EA0C0F03D1C9
:100638004B0218BF084608D180EA010000F00040CC
:1006480040F0FE4040F40000704740F0FE4040F4A7
:10065800400070474FF0FF0C1CEAD0521EBF1CEA46
:10066800D15392EA0C0F93EA0C0F69D0A2EB030264
:1006780080EA010C49024FEA402037D04FF08053FE
:1006880043EA111143EA10130CF000408B4238BFC3
:100698005B0042F17D024FF4000C8B4224BF5B1AD1
:1006A80040EA0C00B3EB510F24BFA3EB510340EA1F
:1006B8005C00B3EB910F24BFA3EB910340EA9C00CD
:1006C800B3EBD10F24BFA3EBD10340EADC001B013D
:1006D80018BF5FEA1C1CE0D1FD2A3FF650AF8B42E1
:1006E80040EBC25008BF20F0010070470CF0004CEE
:1006F8004CEA50207F32C2BFD2F1FF0340EAC25019
:10070800704740F400004FF00003013A37E792F0D9
:10071800000F00F0004C02BF400010F4000F013A37
:10072800F9D040EA0C0093F0000F01F0004C02BF32
:10073800490011F4000F013BF9D041EA0C0195E79B
:100748000CEAD15392EA0C0F08D142027FF47DAF34
:1007580093EA0C0F7FF470AF084676E793EA0C0F24
:1007680004D14B023FF44CAF08466EE730F0004C22
:1007780018BF31F0004CCAD130F000427FF45CAFB2
:1007880031F000437FF43CAF5FE700BF42000ED278
:10079800B2F1FE4F0BD34FF09E03B3EB126209D4B4
:1007A8004FEA002343F0004323FA02F070474FF06A
:1007B8000000704712F1610F01D1420202D14FF0DF
:1007C800FF3070474FF00000704700BF53B94AB977
:1007D800002908BF00281CBF4FF0FF314FF0FF3041
:1007E80000F074B9ADF1080C6DE904CE00F006F81C
:1007F800DDF804E0DDE9022304B070472DE9F04795
:10080800089E0D4604468846002B4DD18A429446E0
:1008180068D9B2FA82F252B101FA02F3C2F12001A8
:1008280020FA01F10CFA02FC41EA030894404FEA6D
:100838001C45210CB8FBF5FE1FFA8CF705FB1E833F
:1008480041EA03430EFB07F199420BD91CEB030362
:100858000EF1FF3080F01E81994240F21B81AEF10B
:10086800020E63445B1AA4B2B3FBF5F005FB103328
:1008780044EA034400FB07F7A7420AD91CEB040427
:1008880000F1FF3380F00881A74240F205816444FB
:100898000238E41B40EA0E4000211EB1D440002378
:1008A800C6E90043BDE8F0878B4208D9002E00F066
:1008B800EE800021C6E900050846BDE8F087B3FAD6
:1008C80083F100294AD1AB4202D3824200F2F98077
:1008D800841A65EB030301209846002EE2D0C6E98E
:1008E8000048DFE702B9FFDEB2FA82F2002A40F0E0
:1008F8009180A1EB0C054FEA1C471FFA8CFE0121E1
:10090800B5FBF7F307FB1350250C45EA00450EFB32
:1009180003F0A84208D91CEB050503F1FF3802D201
:10092800A84200F2CB8043462D1AA4B2B5FBF7F0DB
:1009380007FB105544EA05440EFB00FEA64508D9FE
:100948001CEB040400F1FF3502D2A64500F2BB807F
:100958002846A4EB0E0440EA03409EE7C1F12007B5
:100968008B4022FA07FC4CEA030C20FA07F405FA3C
:1009780001F31C43FD404FEA1C4900FA01F3B5FBA3
:10098800F9F8200C1FFA8CFE09FB185540EA0545BA
:1009980008FB0EF0A84202FA01F20BD91CEB050580
:1009A80008F1FF3A80F08880A84240F28580A8F1DB
:1009B800020865442D1AA4B2B5FBF9F009FB1055DD
:1009C80044EA054500FB0EFEAE4508D91CEB0505BB
:1009D80000F1FF346CD2AE456AD90238654440EA6A
:1009E8000840A0FB0294A5EB0E05A542C846A64602
:1009F80056D353D05EB1B3EB080265EB0E0505FA8A
:100A080007F722FA01F3CD401F43C6E9007500211C
:100A1800BDE8F087C2F1200320FA03F10CFA02FCCA
:100A280025FA03F395400D434FEA1C471FFA8CFE45
:100A3800B3FBF7F107FB11302B0C43EA004301FB32
:100A48000EF0984204FA02F408D91CEB030301F1F2
:100A5800FF382FD298422DD9023963441B1AADB200
:100A6800B3FBF7F007FB103345EA034500FB0EF331
:100A7800AB4208D91CEB050500F1FF3816D2AB4292
:100A880014D902386544ED1A40EA014138E7314685
:100A9800304607E78646E5E61846FAE64B45A9D20A
:100AA800B9EB020864EB0C0E0138A3E74046EAE70D
:100AB800204694E74146D1E7D0467BE7023B6544B0
:100AC80032E7084609E76444023842E7704700BF46
:100AD80010B51648164B036042680023137042682D
:100AE800802151704268E12191704268D370426858
:100AF800137142685371012303720E4BC3600E4B8E
:100B0800036140F2F453436100F054FE58B90B4CB2
:100B180034220021204603F051FD212323604FF4A5
:100B28004033636110BD00F037F9F0E74C05002051
:100B3800008002409C0400203C040020180500208E
:100B480070B58CB000230793089309930A930B930D
:100B58000268434B9A4201D00CB070BD414BD3F8A8
:100B6800D82042F40042C3F8D820D3F8D82002F4A1
:100B780000420092009AD3F8D82042F48032C3F899
:100B8800D820D3F8D82002F480320192019AD3F801
:100B9800D82042F40032C3F8D820D3F8D82002F481
:100BA80000320292029AD3F8E02042F00402C3F81D
:100BB800E020D3F8E02002F004020392039AD3F86D
:100BC800E02042F00102C3F8E020D3F8E02002F070
:100BD80001020492049AD3F8E02042F00202C3F81A
:100BE800E020D3F8E02002F002020592059AD3F83B
:100BF800E02042F04002C3F8E020D3F8E03003F0F0
:100C080040030693069B32230793022608960B257A
:100C18000B9507A9144800F069FE862307930896E8
:100C2800002409940A940B9507A9104800F05EFE69
:100C38004FF400530793089609940A940B9507A953
:100C48000B4800F053FE4FF420530793089609947D
:100C58000A940B9507A9074800F048FE7CE700BFF7
:100C68000080024000440258000802580000025860
:100C78000004025800180258F0B58DB000240794FB
:100C8800089409940A940B943E4BD3F8E02042F060
:100C98000402C3F8E020D3F8E02002F00402019235
:100CA800019AD3F8E02042F08002C3F8E020D3F89C
:100CB800E02002F080020292029AD3F8E02042F08B
:100CC8000102C3F8E020D3F8E02002F00102039209
:100CD800039AD3F8E02042F00202C3F8E020D3F8E8
:100CE800E02002F002020492049AD3F8E02042F0D5
:100CF8000802C3F8E020D3F8E02002F008020592C9
:100D0800059AD3F8E02042F04002C3F8E020D3F877
:100D1800E03003F040030693069B1B4F22464FF436
:100D28008141384600F0E0FE184D22464021284611
:100D380000F0DAFE4FF400530793154B089309941B
:100D480007A9144800F0D2FD4FF481430793012608
:100D5800089609940A9407A9384600F0C7FD40236D
:100D68000793089609940A9407A9284600F0BEFD3F
:100D7800802307930894099407A9284600F0B6FD34
:100D88000DB0F0BD00440258000402580018025883
:100D9800000011110008025872B6FEE700B59DB0B8
:100DA8004C22002109A803F009FC2022002101A8F7
:100DB80003F004FC022000F04FFF00230093264BB1
:100DC8009A6942F440429A619B6903F44043009354
:100DD800224BDA6A42F00102DA62DB6A03F00103AD
:100DE8000093009B1C4B9B6913F4005FFAD001220F
:100DF80009924FF4A0230A93022312931393149297
:100E08007822159216930F22179218930C23199390
:100E180000231A931B9309A800F050FFB8B93F2389
:100E2800019303230293002303930823049340238D
:100E3800059306934FF480620792089304210DEB03
:100E4800010001F06BFB20B91DB05DF804FBFFF752
:100E5800A3FFFFF7A1FF00BF004802580004005895
:100E680008B500F0ADF9FFF799FFFFF705FFFFF7A9
:100E78002FFE00F085F800F001F9FEE782B0074B7D
:100E8800D3F8F42042F00202C3F8F420D3F8F43087
:100E980003F002030193019B02B07047004402581B
:100EA800FEE7FEE7FEE7FEE7FEE77047704770479C
:100EB80008B500F0B3F908BD264B1B6803F00F0313
:100EC800062B06D8234A136823F00F0343F00703C1
:100ED8001360214B1A6842F001021A6000221A615D
:100EE80019681E4A0A401A601A4B1B6813F0080F4B
:100EF80006D0184A136823F00F0343F00703136062
:100F0800154B00229A61DA611A62154999621549EE
:100F1800D962154919635A639963DA6319645A6483
:100F2800196821F4802119601A66104B1A68104B51
:100F38001340B3F1005F03D20E4B0122C3F808211E
:100F48000D4B43F2D2021A600C4B4FF000629A60CC
:100F5800704700BF00200052004402587FEDF6EAB7
:100F6800000202020000FF01800201010010005C83
:100F78000000FFFF008000510040005200ED00E03B
:100F880008B51748174B03604FF4E133436000235B
:100F98008360C36003610C2242618361C3610362A1
:100FA8004362836203F06FF870B900210C4803F0C4
:100FB800E2F860B900210A4803F002F950B908487C
:100FC80003F0BAF848B908BDFFF7E6FEEDE7FFF70A
:100FD800E3FEEFE7FFF7E0FEF1E7FFF7DDFEF2E7FC
:100FE800D40500200048004010B5B6B004460021E2
:100FF80031913291339134913591BC2202A803F09A
:10100800DDFA22681A4B9A4201D036B010BD02238D
:10101800029302A801F01EFD38BB164BD3F8E82056
:1010280042F48022C3F8E820D3F8E82002F48022B2
:101038000092009AD3F8E02042F00802C3F8E020BA
:10104800D3F8E03003F008030193019B4FF4407399
:101058003193022332930023339334930723359338
:1010680031A9054800F042FCCFE7FFF795FED4E729
:101078000048004000440258000C025808B50C48CB
:101088000C4B0360092343600222C2600023036102
:1010980082610122C261036243628262C2620363A7
:1010A80000F028FD00B908BDFFF776FEFBE700BF9A
:1010B800640600200000084070B5B6B00446002160
:1010C80031913291339134913591BC2202A803F0C9
:1010D80075FA2268234B9A4201D036B070BD4FF49E
:1010E800802302934FF48013239302A801F0B2FCEB
:1010F800002833D100F0DAFD1B4CD4F8E03043F07F
:101108000103C4F8E030D4F8E03003F001030093A1
:10111800009B4FF4E8533193022332930025339513
:1011280034950A233593114E31A9304600F0DEFB81
:101138004FF4007331933295339531A9304600F05E
:10114800D5FBD4F8D83043F00063C4F8D830D4F8CD
:10115800D83003F000630193019BBEE7FFF71CFE44
:10116800C8E700BF000008400044025800000258C9
:10117800104B1B780BB90120704710B504464FF48B
:101188007A70B0FBF3F30C4A1068B0FBF3F000F090
:10119800C3F868B90F2C01D901200AE000222146C2
:1011A8004FF0FF3000F082F8044B1C60002000E094
:1011B800012010BD08000020000000200C000020C5
:1011C80010B5032000F060F801F09CF80F498B6916
:1011D800C3F303230E4AD35C03F01F03D8408B6983
:1011E80003F00F03D35C03F01F0320FA03F3094A4B
:1011F8001360094B18600020FFF7BAFF10B10124F3
:10120800204610BD0446FFF739FEF9E700440258AE
:10121800604700080400002000000020034B1B78F2
:10122800034A11680B441360704700BF0800002090
:101238006C0A0020014B1868704700BF6C0A002038
:1012480038B50446FFF7F6FF0546B4F1FF3F02D074
:10125800044B1B781C44FFF7EDFF401BA042FAD358
:1012680038BD00BF08000020014B1868000C70470B
:101278000010005C034A536823F46003034353607F
:10128800704700BF000400580649CB6823F4E063A8
:101298001B041B0C000200F4E0600343024A1A43DB
:1012A800CA60704700ED00E00000FA0500B5174B72
:1012B800DB68C3F30223C3F1070CBCF1040F28BF9A
:1012C8004FF0040C03F1040EBEF1060F14D9033BD2
:1012D8004FF0FF3E0EFA0CFC21EA0C0199400EFA81
:1012E80003F322EA03031943002807DB0901C9B203
:1012F800074B19545DF804FB0023E9E700F00F00E1
:101308000901C9B2034B1954F4E700BF00ED00E02E
:1013180000E400E014ED00E00138B0F1807F0BD26A
:101328004FF0E0235861054AF02182F8231000208D
:10133800986107221A6170470120704700ED00E0AC
:1013480030B48B680A6813430A7943EAC2630A7B9C
:1013580043EAC2534A7B43EA82538A7B43EA4253B5
:10136800CA7B43EA02530A7C002A40F0B0804FF45B
:10137800002213434A7C002A40F0AB804FF400322D
:1013880013438A7C43EA02434A6913438A69134335
:101398000A7F43EA02334A7F43EAC2238A7F002A4C
:1013A80040F099804FF480621343CA7F43EA422396
:1013B80091F82020002A40F090804FF48072134367
:1013C8004A6A134391F8282043EA0213CA6A13436E
:1013D8000468226822F07F4222F47B0222F4FE4253
:1013E80022F07C0213432360CA6B91F838301B0645
:1013F80043EA426391F8302043EA824391F831206E
:1014080043EA424391F83220002A68D14FF48032EF
:1014180013434A6B13430468626822F07C5222F437
:10142800EF2222F4FF6222F007021343636091F86F
:1014380040204B6C43EA02220468E5682B4B2B40A2
:101448001343E36091F854200B6D43EA420391F88B
:101458004C20002A45D1802213438A6C43EA024378
:101468000468226F22F0F2021204120C134323675D
:1014780091F8563091F8552043EA42020468D4F8AE
:10148800903023F003031343C4F890300268D2F875
:10149800003D23F072038C6D2343C2F8003DCB6DF1
:1014A80091F86020FAB94022134391F8612043EA89
:1014B800021391F8622043EAC2030168D1F8302D83
:1014C80022F07B021343C1F8303D30BC7047002244
:1014D8004FE7002254E7002266E700226FE7002268
:1014E80096E70022B8E70022DEE700BFF0FEFFFF24
:1014F80010B4026802F580521468234B23400C682C
:10150800234313600A798B6843EA02330A7B43EA70
:10151800C232036803F5805CDCF804401B4B2340AF
:101528001343CCF8043091F80DC00B6A43EA0C4C15
:10153800026802F58052D2F80041154B234043EA75
:101548000C03C2F800310B690A7D43EA02134A7F93
:1015580043EA0232036803F5805CDCF804410D4B72
:1015680023401343CCF804310A7F896941EAC271E8
:10157800026802F58052D2F80801074B03400B437A
:10158800C2F8083110BC7047FD87FFFFFE2FFFFF30
:1015980000C0FEFFEFEFC0FFFFFFC07F70B5A2B035
:1015A800064601258DF83350002412948DF84140E9
:1015B8008DF843408DF828508DF856508DF83250EC
:1015C8008DF84C408DF884504FF400530F938DF8EC
:1015D8005C4018948DF885408DF886404FF4C363BD
:1015E80016938DF830400B948DF835508DF83640B1
:1015F8008DF840401D941B9414948DF864408DF828
:101608007A408DF84250202320938DF844508DF86D
:1016180055404FF0405309934FF480430E938DF893
:10162800314002231F938DF878408DF879408DF86A
:1016380054408DF834501A948DF8705009A9FFF76A
:101648007FFE8DF80450029500948DF81C408DF8AB
:101658000D408DF80C404FF4001306938DF814409C
:1016680004938DF81D404FF406730893694630467D
:10167800FFF73EFF22B070BD10B4002210E0C4682E
:1016880002EB42034FEAC30C04EBC303002144F806
:101698000C1059609960D960911D40F821300132D1
:1016A800032AECD900238362036803F580530322DD
:1016B800C3F82C21C268036803F58053C3F81421CA
:1016C800C268036803F58053C3F8202110BC704733
:1016D80010B4002114E0046901EB41034FEAC30C84
:1016E80004EBC303002244F80C205A609A60DA60C5
:1016F8001A615A6101F1100200EB82025360013154
:101708000329E8D9002343658365C36543660366F7
:10171800036803F580530322C3F830210269036884
:1017280003F58053C3F81C21036903F148020368D9
:1017380003F58053C3F8282110BC704738B5054617
:101748000368D3F8004224F4706401F031F8114BB7
:101758000344114A934205D244F400742B68C3F839
:10176800004238BD0D4B03440D4A934202D844F45D
:101778004074F3E70B4B03440B4A9342EED30B4BF5
:1017880003440B4A934202D844F48074E6E744F4D5
:101798008064E3E700D3CEFEC0E1E40040F1E9FD58
:1017A8003F787D0100796CFC005A6202001F0AFA3A
:1017B8007FF0FA02002800F0908030B583B004462C
:1017C800C36E8BB32323E366454BD3F8F42042F072
:1017D8000202C3F8F420D3F8F43003F002030193B3
:1017E800019B237A1BBB0020FFF744FD236803F508
:1017F80080531A6842F001021A60FFF71BFD054684
:10180800236803F580531B6813F0010F14D0FFF70A
:1018180011FD401BB0F5FA7FF2D904236367E0237A
:10182800E366012003B030BDFFF78AF9CAE74FF439
:101838000000FFF71FFDD9E72046FFF77FFF00F004
:10184800B7FF284BA3FB00239B0C2268013BC2F87F
:10185800DC302046FFF7A2FE226802F58052D2F85B
:10186800003123F4E01343F40023C2F80031626925
:1018780012F0030F04D001206067E023E366D1E78C
:10188800216801F58051D1F80801174B034043EA5C
:101898004203C1F808312046FFF7EEFE2046FFF765
:1018A80017FF626851791379226843EA0123C2F865
:1018B80000336268D17893781B0443EA0163517856
:1018C80043EA0123117822680B43C2F8043300204D
:1018D80060671023E3662367A4E70120704700BF11
:1018E8000044025883DE1B430180FFFFF0B583B03C
:1018F800002340E0092400E00024B44044EA0C043A
:101908000235764E46F825404FF0B044D4F8805062
:10191800D44325EA02064F6817F4803F01D042EA13
:1019280005064FF0B045C5F88060D5F8845004EA44
:1019380005064F6817F4003F01D042EA05064FF04C
:10194800B045C5F884602D6804EA05064F6817F4A9
:10195800801F01D042EA05064FF0B0452E606D6841
:101968002C404E6816F4001F01D042EA05044FF0DF
:10197800B042546001330A6832FA03F400F0AB80D5
:101988004FF0010C0CFA03FC1CEA0202F2D04C687E
:10199800651E112C18BF012D01D9122C13D1856891
:1019A8005E000324B44025EA0405CC68B4402C4307
:1019B8008460446824EA0C0C4C68C4F300149C400E
:1019C80044EA0C044460C6684FEA430C032505FA50
:1019D8000CF5EC4326EA050E8D6805FA0CF545EA88
:1019E8000E05C5604D68122D18BF022D12D1DE08F4
:1019F800083650F8267003F007054FEA850E0F25C4
:101A080005FA0EF527EA05070D6905FA0EF53D43B7
:101A180040F82650056825404C6804F0030404FA91
:101A28000CF42C4304604C6814F0805FA2D02C4C5A
:101A3800D4F8F45045F00205C4F8F450D4F8F44052
:101A480004F002040194019C9D08AE1C234C54F838
:101A5800267003F00304A6000F24B44027EA040C00
:101A6800204CA0423FF448AF04F58064A04222D045
:101A780004F58064A04220D004F58064A0421ED002
:101A880004F58064A0421CD004F58064A0421AD0FA
:101A980004F58064A04218D004F58064A04216D0F2
:101AA80004F58064A04214D004F58064A0423FF499
:101AB80021AF0A2421E701241FE702241DE703249C
:101AC8001BE7042419E7052417E7062415E707246C
:101AD80013E7082411E703B0F0BD00BF0004005865
:101AE80000440258000002580AB181617047090495
:101AF8008161704770B58AB0002800F0978005466C
:101B0800046890F8BD333BB3032385F8BD33E36B1A
:101B180013F4807F01D100232B61286802F0E2FBD7
:101B28002C4654F8106BEC460FCCACE80F000FCCE9
:101B3800ACE80F0094E803008CE803002B1D0ECBE3
:101B4800304602F081FB044658B1022385F8BD33C4
:101B5800012420460AB070BD80F8BC33FFF7ACFA08
:101B6800D2E70021286802F0C3FB234616E0C3EB46
:101B7800C30205EB8202012182F83D1082F83C3055
:101B8800A2F84230002182F83F1051649164C3EBFF
:101B9800C30205EB820211650133DBB269688B422F
:101BA800E5D316E0C4EBC40305EB8303002283F8F6
:101BB800FD2183F8FC4183F8FF21C3F80422C3F810
:101BC8000822C4EBC40305EB8303C3F810220134D5
:101BD800E4B2A142E6D82C4654F8106BEC460FCC80
:101BE800ACE80F000FCCACE80F0094E803008CE8D9
:101BF80003002B1D0ECB304602F0C0FB044660B933
:101C0800002385F83830012385F8BD336B6A012B32
:101C180008D0286802F076FC9BE7022385F8BD33DC
:101C2800012496E7284600F003F8F2E7012490E73C
:101C3800034602680121C0F8FC13002083F8F4036E
:101C4800936943F000639361516D024B0B435365F5
:101C5800704700BF03000010134BDB6813F0040F3C
:101C680007D1114BDB6803F0070383421AD0012028
:101C7800704710B50C4AD36823F007031843D060A7
:101C8800FFF7D8FA0446084B5B6813F4005F07D1E6
:101C9800FFF7D0FA001BB0F57A7FF4D9012000E0F5
:101CA800002010BD0020704700480258024AD3683F
:101CB80043F08073D360704700480258002800F052
:101CC800028338B50446036813F0010F25D09C4AF7
:101CD800136903F03803926A102B15D0182B0FD014
:101CE8006368B3F5803F3FD0002B53D1944B1A68FB
:101CF80022F480321A601A6822F480221A6038E0CE
:101D080002F00302022AEBD18D4B1B6813F4003F4B
:101D180003D06368002B00F0D882236813F0020F09
:101D280000F08B80864A1369926A13F038035AD000
:101D3800182B55D0E368002B00F0C88080490A684A
:101D480022F0190213430B60FFF774FA05467C4B27
:101D58001B6813F0040F40F09780FFF76BFA401BE5
:101D68000228F4D90320B7E2754A136843F4803394
:101D7800136063682BB3FFF75DFA0546704B1B6869
:101D880013F4003FC9D1FFF755FA401B6428F5D971
:101D98000320A1E2B3F5A02F09D0694B1A6822F4F9
:101DA80080321A601A6822F480221A60E1E7644BD4
:101DB8001A6842F480221A601A6842F480321A6063
:101DC800D7E7FFF737FA05465D4B1B6813F4003F6A
:101DD800A3D0FFF72FFA401B6428F5D903207BE234
:101DE80012F0030FA6D1564B1B6813F0040F03D053
:101DF800E368002B00F06B82FFF736FA41F2030329
:101E0800984212D82269402A07D04D494B6823F4DA
:101E18007C3343EA02334B600FE0494A536823F4AA
:101E28007C3343F40033536007E0454A536823F09A
:101E3800FE43216943EA01635360236813F0100FDE
:101E480000F088803E4A136903F03803926A082B31
:101E580054D0182B4ED0E369002B00F0B880384AD4
:101E6800136843F080031360FFF7E4F90546344B29
:101E78001B6813F4807F40F08880FFF7DBF9401B74
:101E88000228F4D9032027E2FFF7EEF941F2030311
:101E9800984212D82269402A07D029494B6823F46E
:101EA8007C3343EA02334B60C7E7254A536823F47F
:101EB8007C3343F400335360BFE7214A536823F06F
:101EC800FE43216943EA01635360B6E71C4A13687D
:101ED80023F001031360FFF7ADF90546184B1B68A3
:101EE80013F0040FA9D0FFF7A5F9401B0228F5D974
:101EF8000320F1E102F00302012AACD1104B1B6868
:101F080013F4807F03D0E369802B40F0E281FFF770
:101F1800ABF941F20303984214D8226A202A07D069
:101F280007494B6823F0F84343EA82634B6011E0AA
:101F3800034A536823F0F84343F08043536009E0B1
:101F4800004402589A4AD36823F07C53216A43EA32
:101F58000163D360236813F0080F60D06369002B16
:101F680049D0934A536F43F001035367FFF762F96F
:101F780005468F4B5B6F13F0020F50D1FFF75AF9EC
:101F8800401B0228F5D90320A6E1FFF76DF941F2BD
:101F98000303984212D8226A202A07D084494B6842
:101FA80023F0F84343EA82634B60D3E7804A5368DF
:101FB80023F0F84343F080435360CBE77C4AD3686F
:101FC80023F07C53216A43EA0163D360C2E7784A6D
:101FD800136823F080031360FFF72CF90546744B50
:101FE8001B6813F4807FB5D0FFF724F9401B022843
:101FF800F5D9032070E16E4A536F23F0010353674C
:10200800FFF718F905466A4B5B6F13F0020F06D00D
:10201800FFF710F9401B0228F5D903205CE123687B
:1020280013F0200F29D0A3699BB1614A136843F4C8
:1020380080531360FFF7FEF805465D4B1B6813F4E9
:10204800005F1AD1FFF7F6F8401B0228F5D90320E4
:1020580042E1574A136823F480531360FFF7EAF804
:102068000546534B1B6813F4005F06D0FFF7E2F8F0
:10207800401B0228F5D903202EE1236813F0040F32
:1020880021D1636A002B00F02681494A126902F0C7
:102098003802182A00F0EE80022B75D0444A1368E3
:1020A80023F080731360FFF7C5F80446404B1B68A4
:1020B80013F0007F00F0DC80FFF7BCF8001B02285B
:1020C800F4D9032008E13B4A136843F48073136092
:1020D800FFF7B0F80546374B1B6813F4807F06D12D
:1020E800FFF7A8F8401B6428F5D90320F4E0A3689B
:1020F800012B0AD00BBB2E4B1A6F22F001021A6774
:102108001A6F22F004021A6704E0294A136F43F099
:1021180001031367A36833B3FFF78CF80546244B14
:102128001B6F13F0020FACD1FFF784F8401B41F28C
:1021380088339842F3D90320CEE0052B09D01C4BF5
:102148001A6F22F001021A671A6F22F004021A6746
:10215800E0E7174B1A6F42F004021A671A6F42F051
:1021680001021A67D6E7FFF765F80546104B1B6FA3
:1021780013F0020F85D0FFF75DF8401B41F288335A
:102188009842F3D90320A7E0094A136823F0807323
:102198001360FFF74FF80546054B1B6813F0007FE7
:1021A8000AD0FFF747F8401B0228F5D9032093E02F
:1021B80000440258004802584F4B996A4F4A0A4057
:1021C800A16AE06A41EA00110A439A62226B013A65
:1021D800C2F30802616B0139490289B20A43A16B53
:1021E8000139090401F4FE010A43E16B01390906CA
:1021F80001F0FE410A431A63DA6A22F00102DA6248
:10220800596B3F4A0A40A16C42EAC1025A63DA6A32
:1022180022F00C02216C0A43DA62DA6A22F0020226
:10222800616C0A43DA62DA6A42F48032DA62DA6AA4
:1022380042F40032DA62DA6A42F48022DA62DA6A56
:1022480042F00102DA621A6842F080721A60FEF700
:10225800F1FF0446284B1B6813F0007F06D1FEF7F8
:10226800E9FF001B0228F5D9032035E0002033E000
:10227800002031E0204A916A106B012B2DD001F02B
:102288000303A26A93422AD1C1F30511E36A994272
:1022980027D1C0F30802236B013B9A4223D1C0F334
:1022A8004622636B013B9A421FD1C0F30642A36BDF
:1022B800013B9A421BD1C0F30660E36B013B984295
:1022C80017D1002008E001207047012004E0012018
:1022D80002E0012000E0002038BD0120FCE70120D9
:1022E800FAE70120F8E70120F6E70120F4E70120EA
:1022F800F2E70120F0E700BF004402580CFCFFFFA2
:102308000700FFFFF8B57E4B1B6903F03803102B5D
:1023180000F0F280182B10D013B17A4C2046F8BD8B
:10232800774B1B6813F0200F00F0E880744B186897
:10233800C0F3C100744CC440F0E7714B9D6A05F0CE
:1023480003059C6AC4F30514D86A00F001005B6BAE
:10235800C3F3CC0303FB00F0FEF770F80646002C2D
:10236800DCD0012D76D0022D00F0A4800DB32046DC
:10237800FEF764F801466548FEF76CF90446604BC1
:10238800186BC0F30800FEF759F805464FF0645182
:102398003046FEF7ABF801462846FDF79FFF4FF0A1
:1023A8007E51FDF79BFF01462046FEF79FF8044645
:1023B80071E0534B1B6813F0200F29D0504F3B6836
:1023C800C3F3C1035048D840FEF738F80546204605
:1023D800FEF734F801462846FEF73CF90446386B08
:1023E800C0F30800FEF72AF805464FF0645130465E
:1023F800FEF77CF801462846FDF770FF4FF07E5146
:10240800FDF76CFF01462046FEF770F8044642E0EF
:102418002046FEF713F801463D48FEF71BF904462F
:10242800374B186BC0F30800FEF708F805464FF065
:1024380064513046FEF75AF801462846FDF74EFF2C
:102448004FF07E51FDF74AFF01462046FEF74EF851
:10245800044620E02046FDF7F1FF01462B48FEF731
:10246800F9F80446264B186BC0F30800FDF7E6FFA1
:1024780005464FF064513046FEF738F801462846C5
:10248800FDF72CFF4FF07E51FDF728FF014620464F
:10249800FEF72CF804461A4B1B6BC3F34623581C53
:1024A800FDF7CCFF01462046FEF7D4F8FEF76EF99B
:1024B800044633E72046FDF7C1FF01461548FEF7FD
:1024C800C9F804460E4B186BC0F30800FDF7B6FFB9
:1024D80005464FF064513046FEF708F80146284695
:1024E800FDF7FCFE4FF07E51FDF7F8FE0146204651
:1024F800FDF7FCFF0446CEE7074C0FE7024C0DE75B
:102508000044025800093D000090D0030024744A9A
:102518000024744C0024F44A00127A00002800F0C9
:10252800328170B50D4604469B4B1B6803F00F03C0
:102538008B420BD2984A136823F00F030B431360A6
:10254800136803F00F038B4240F01F81236813F0D8
:10255800040F0CD02269914B9B6903F070039A42D7
:1025680005D98E498B6923F070031A438A61236861
:1025780013F0080F0CD06269884BDB6903F0700315
:102588009A4205D98549CB6923F070031A43CA6179
:10259800236813F0100F0CD0A269804BDB6903F499
:1025A800E0639A4205D97D49CB6923F4E0631A4375
:1025B800CA61236813F0200F0CD0E269774B1B6ABD
:1025C80003F070039A4205D974490B6A23F070032B
:1025D8001A430A62236813F0020F0CD0E2686F4BAB
:1025E8009B6903F00F039A4205D96C498B6923F064
:1025F8000F031A438A61236813F0010F41D0674A19
:10260800936923F47063A1680B4393616368022B99
:102618000AD0032B27D0012B2CD0604A126812F065
:10262800040F06D10120ADE0126812F4003F00F05B
:10263800AE805A490A6922F0070213430B61FEF77C
:10264800F9FD0646554B1B6903F038036268B3EB86
:10265800C20F16D0FEF7EEFD801B41F28833984278
:10266800F0D903208EE04D4A126812F0007FE0D1C5
:10267800012087E0494A126812F4807FD9D10120ED
:1026880080E0236813F0020F0CD0E268434B9B698B
:1026980003F00F039A4205D240498B6923F00F03D8
:1026A8001A438A613C4B1B6803F00F03AB420AD9FB
:1026B800394A136823F00F032B431360136803F0A0
:1026C8000F03AB4265D1236813F0040F0CD02269C5
:1026D800324B9B6903F070039A4205D22F498B69EC
:1026E80023F070031A438A61236813F0080F0CD093
:1026F80062692A4BDB6903F070039A4205D22749C5
:10270800CB6923F070031A43CA61236813F0100FD2
:102718000CD0A269214BDB6903F4E0639A4205D22D
:102728001E49CB6923F4E0631A43CA61236813F096
:10273800200F0CD0E269194B1B6A03F070039A4210
:1027480005D216490B6A23F070031A430A62FFF791
:10275800D9FD12498B69C3F30323114AD35C03F0F3
:102768001F03D8408B6903F00F03D35C03F01F03EA
:1027780020FA03F30B4A13600B4B18600B4B1868D5
:10278800FEF7F6FC70BD012070470120FAE7012032
:10279800F8E70120F6E700BF002000520044025885
:1027A8006047000804000020000000200C00002002
:1027B80008B5FFF7A7FD0B4A9369C3F303230A493A
:1027C800CB5C03F01F0320FA03F3926902F00F02B7
:1027D800885C00F01F0023FA00F0044A1060044AE5
:1027E800136008BD00440258604700080400002038
:1027F8000000002008B5FFF7DBFF054BDB69C3F3DA
:102808000213044AD35C03F01F03D84008BD00BF7D
:10281800004402586047000808B5FFF7C9FF054B98
:10282800DB69C3F30223044AD35C03F01F03D840D7
:1028380008BD00BF0044025860470008404B9B6A2F
:1028480003F00303032B79D070B505460E463C4AC6
:10285800136823F080631360FEF7ECFC0446384BE2
:102868001B6813F0006F06D0FEF7E4FC031B022B75
:10287800F5D9032070BD324B9A6A22F47C3229685C
:1028880042EA01329A626A68013AC2F30802A96808
:102898000139490289B20A43E9680139090401F496
:1028A800FE010A4329690139090601F0FE410A437C
:1028B8009A63DA6A22F0C00269690A43DA62DA6A5C
:1028C80022F02002A9690A43DA62DA6A22F01002C9
:1028D800DA62D96B1B4A0A40E96942EAC102DA6343
:1028E800DA6A42F01002DA62C6B91A46DB6A43F4C1
:1028F8000023D362124A136843F080631360FEF723
:1029080099FC04460E4B1B6813F0006F14D1FEF7B8
:1029180091FC001B0228F5D90320ABE7012E05D056
:10292800074AD36A43F40013D362E3E7044AD36A3D
:1029380043F48013D362DDE700209BE70120704752
:10294800004402580700FFFF404B9B6A03F0030353
:10295800032B79D070B505460E463C4A136823F020
:1029680080531360FEF766FC0446384B1B6813F06F
:10297800005F06D0FEF75EFC031B022BF5D903208F
:1029880070BD324B9A6A22F07C72296842EA015281
:102998009A626A68013AC2F30802A96801394902D1
:1029A80089B20A43E9680139090401F4FE010A43BE
:1029B80029690139090601F0FE410A431A64DA6AF5
:1029C80022F4406269690A43DA62DA6A22F4007220
:1029D800A9690A43DA62DA6A22F48072DA62596C07
:1029E8001B4A0A40E96942EAC1025A64DA6A42F4B7
:1029F8008072DA62C6B91A46DB6A43F48003D3628E
:102A0800124A136843F080531360FEF713FC044620
:102A18000E4B1B6813F0005F14D1FEF70BFC001B74
:102A28000228F5D90320ABE7012E05D0074AD36A5F
:102A380043F08073D362E3E7044AD36A43F40003A4
:102A4800D362DDE700209BE701207047004402586D
:102A58000700FFFFF8B50446036813F0006F30D095
:102A6800436EB3F5001F26D00ED8EBB1B3F5801F27
:102A780007D102210430FFF7E1FE054645B12E4695
:102A880021E0012635461EE0B3F5401F09D1002597
:102A9800954A136D23F44013616E0B4313650026AA
:102AA80011E0012635460EE08F4AD36A43F400331D
:102AB800D3620025ECE702212430FFF745FF0546E5
:102AC800DCE700263546236813F4807F14D0636D55
:102AD800042B30D8DFE803F0032228080800824AD4
:102AE800D36A43F40033D36245BB7F4A136D23F0A6
:102AF8000703616D0B431365236813F4007F2FD020
:102B0800A36D802B49D01ED8002B40D0402B17D165
:102B18000021201DFFF792FE054619E00021201D27
:102B2800FFF78CFE0546DFE7002104F12400FFF7DC
:102B38000BFF0546D8E701263546DDE72E46DBE7DD
:102B4800012635460CE0C02B02D0B3F5807F1BD19F
:102B580055BB654A136D23F4E073A16D0B431365F0
:102B6800236813F4806F45D0D4F8A430B3F5800FF0
:102B780038D01ED883B3B3F5001F17D10021201D0C
:102B8800FFF75CFE05461AE001263546E8E7564A97
:102B9800D36A43F40033D362DAE7002104F1240056
:102BA800FFF7D2FE0546D3E72E46D9E7012635467C
:102BB80020E0B3F5C00F02D0B3F5000F09D1C5B9B5
:102BC800494A936D23F46003D4F8A4100B4393652A
:102BD80010E0012635460DE0434AD36A43F400333A
:102BE800D362ECE7002104F12400FFF7ADFE0546AF
:102BF800E5E72E46236813F4006F23D0D4F8A830F5
:102C0800B3F1007F41D00DD8002B38D0B3F1807FCD
:102C180005D10021201DFFF711FE054608E0012619
:102C280035460FE0B3F1407F02D0B3F1806F23D176
:102C3800002D31D12C4A936D23F0E063D4F8A8100D
:102C48000B439365236813F0007F2ED0A36C202BD1
:102C58003FD026D833B1102B20D1234AD36A43F46E
:102C68000033D362002D3AD11F4AD36C23F03003CE
:102C7800A16C0B43D36418E001263546E2E71A4AF3
:102C8800D36A43F40033D362D2E7002104F124006D
:102C9800FFF75AFE0546CBE72E46D3E70126354611
:102CA80003E0302BDED001263546236813F4805F1D
:102CB8002BD0E36DB3F5005F4CD017D8002B43D071
:102CC800B3F5805F0DD10021201DFFF7B7FD054644
:102CD80012E00221201DFFF7B1FD0546C2E72E468E
:102CE800E3E70126354610E000440258B3F5405F9B
:102CF80002D0B3F5804F24D1002D32D1754A136D1F
:102D080023F4E043E16D0B431365236813F4005F7C
:102D180037D0236EB3F5003F51D027D83BB1B3F578
:102D2800803F20D10121201DFFF788FD0546002D99
:102D38004CD1684A136D23F4E023216E0B431365CD
:102D48001FE001263546E0E7624AD36A43F40033C0
:102D5800D362D1E7002104F12400FFF7F5FD054611
:102D6800CAE72E46D1E7012635460AE0B3F5802F9B
:102D7800DDD0B3F5A02FDAD0B3F5403FD7D0012688
:102D88003546236813F4804F30D0D4F8AC30B3F113
:102D9800005F44D01FD83BB1B3F1805F18D1012147
:102DA800201DFFF74BFD0546002D3FD1494A936D85
:102DB80023F0E043D4F8AC100B43936516E00121EF
:102DC80004F12400FFF7C0FD0546B0E72E46D8E71A
:102DD800012635460AE0B3F1804FE5D0B3F1A04FA4
:102DE800E2D0B3F1405FDFD001263546236813F403
:102DF800004F09D0E36EB3F1805F19D0B3F1005FE3
:102E080024D0D3B101263546236813F0807F32D011
:102E1800636C032B59D8DFE803F0262152260121E1
:102E280004F12400FFF790FD0546BDE72E46DDE7D7
:102E3800284AD36A43F40033D3626DB9254A136D27
:102E480023F04053E16E0B431365DDE70121201D9C
:102E5800FFF7F4FC0546F0E72E46D5E71D4AD36A8E
:102E680043F40033D3629DBB1A4AD36C23F00303A7
:102E7800616C0B43D364236813F4800F2CD123684F
:102E880013F0010F00F0A380A36F282B00F29D80A0
:102E9800DFE803F08B9B9B9B9B9B9B9B869B9B9B51
:102EA8009B9B9B9B949B9B9B9B9B9B9B8B9B9B9B81
:102EB8009B9B9B9B8B9B9B9B9B9B9B9B8B00022128
:102EC800201DFFF7BBFC0546CDE701263546D2E7B6
:102ED8002E46D0E7004402588F4A136843F48073A3
:102EE8001360FEF7A7F907468B4B1B6813F4807F26
:102EF80005D1FEF79FF9C01B6428F5D90325002DDD
:102F08004AD1864B1B6FD4F8B020534013F4407F4E
:102F18000CD0824B1A6F22F44072196F41F4803141
:102F28001967196F21F4803119671A67D4F8B0301E
:102F3800B3F5807F15D08DBBD4F8B03003F4407260
:102F4800B2F5407F1ED0754A136923F47C53136190
:102F580072490B6FD4F8B020C2F30B0213430B670E
:102F68008DE7FEF767F907466C4B1B6F13F0020FEE
:102F7800E1D1FEF75FF9C01B41F288339842F3D9DB
:102F88000325D8E76548026922F47C52644901EABE
:102F9800131313430361DBE72E4670E72E466EE7F3
:102FA8000121201DFFF74AFC0546E5B95B4A536D30
:102FB80023F03803A16F0B43536508E0012104F1A6
:102FC8002400FFF7C1FC0546EFE7012635462368D4
:102FD80013F0020F16D0636F052B27D8DFE803F034
:102FE8000A051F0A0A0A2E46F1E70121201DFFF7EC
:102FF80025FC0546EDB9494A536D23F00703616F77
:103008000B435365236813F0040F22D0D4F8903093
:10301800052B43D8DFE803F0140F3B1414140121E7
:1030280004F12400FFF790FC0546E3E70126354646
:10303800E8E72E46E6E70121201DFFF7FFFB0546DE
:103048007DBB364A936D23F00703D4F890100B43E9
:103058009365236813F0200F33D0D4F88C30B3F184
:10306800005F4CD022D83BB1B3F1805F1BD1002167
:10307800201DFFF7E3FB0546002D47D1274A536D76
:1030880023F0E043D4F88C100B43536519E0012179
:1030980004F12400FFF758FC0546D1E70126354620
:1030A800D7E72E46D5E7012635460AE0B3F1804F2B
:1030B800E2D0B3F1A04FDFD0B3F1405FDCD00126FE
:1030C8003546236813F0400F37D0D4F89830B3F55D
:1030D800006F52D026D83BB1B3F5806F18D10021CC
:1030E800201DFFF7ABFB0546002D4DD10B4A936D14
:1030F80023F4E053D4F898100B4393651DE00221A4
:1031080004F12400FFF720FC0546B5E72E46D8E772
:103118000126354611E000BF004802580044025815
:10312800CFFFFF00B3F5805FDED0B3F5A05FDBD043
:10313800B3F5406FD8D001263546236813F0800FC9
:1031480032D0D4F89C30B3F5804F00F09D8020D861
:103158003BB1B3F5005F19D10021201DFFF76EFBCD
:103168000546002D40F09780A54A936D23F46043EF
:10317800D4F89C100B43936516E0022104F1240057
:10318800FFF7E2FB0546AFE72E46D6E701263546B0
:103198000AE0B3F5004FE4D0B3F5204FE1D0B3F522
:1031A800C04FDED001263546236813F0080F0CD037
:1031B800D4F88030B3F5805F6FD0914A536D23F413
:1031C8004053D4F880100B435365236813F0100F55
:1031D8000CD0D4F89430B3F5807F67D0884A936DCB
:1031E80023F44073D4F894100B439365236813F4C5
:1031F800002F0BD0D4F8A030B3F5803F6ED0B3F5D4
:10320800003F61D0002B5AD001263546236813F4BD
:10321800802F0CD0D4F88430B3F5001F76D0B3F5E6
:10322800401F69D0B3F5801F61D001263546236859
:1032380013F4803F07D0E36C002B70D0B3F5803FC8
:103248007BD001263546236813F0005F7DD12368C3
:1032580013F4003F00F08680E36FB3F5807F00F041
:10326800C6807CD9B3F5007F03D0B3F5407F40F02A
:10327800BC80002D40F0C180614A536D23F4407337
:10328800E16F0B4353656DE0022104F12400FFF761
:103298005BFB054665E72E4686E7022104F124001C
:1032A800FFF752FB002888D0012686E7022104F1A7
:1032B8002400FFF749FB002890D001268EE7002163
:1032C800201DFFF7BBFA05467DB94D4A936D23F4DF
:1032D8004033D4F8A0100B43936597E7022104F11B
:1032E8002400FFF731FB0546EEE72E468EE7444AF9
:1032F800D36A43F40033D3627DB9414A536D23F452
:103308004013D4F884100B43536590E7012104F16E
:103318002400FFF719FB0546EEE72E4687E7384AF3
:10332800D36A43F40033D3626DB9354AD36C23F4BE
:103338008033E16C0B43D36485E70221201DFFF73E
:103348007DFA0546F0E72E467DE7022104F12400C8
:10335800FFF7FAFA00283FF47AAF012677E7002B47
:1033680087D00126236813F4801F06D0244A136DE2
:1033780023F00043216F0B431365236813F0805F2C
:1033880007D01F4A136923F48043D4F8B4100B43C1
:103398001361236813F4001F06D0194A136D23F034
:1033A8008073A16E0B431365236813F0804F09D017
:1033B800134B1A6922F400421A611A69D4F8B8103A
:1033C8000A431A612368002B1CDB236813F4000FDF
:1033D80007D00B4A536D23F44003D4F888100B43ED
:1033E800536506B101263046F8BD0126BAE7044AFE
:1033F800D36A43F40033D3623BE72E46B2E700BFFB
:1034080000440258034AD36C23F04053216D0B4308
:10341800D364DAE70044025808B5FFF7C9F9054B49
:103428001B6AC3F30213044AD35C03F01F03D8409A
:1034380008BD00BF00440258604700082DE9F0416C
:103448000446864B9D6A9E6AC6F30536D86AC0F361
:103458000010DB6BC3F3CC0303FB00F0FCF7EEFFBB
:10346800002E00F0F58005F003050746012D79D000
:10347800022D00F0CB800DB33046FCF7DFFF01468C
:103488007748FDF7E7F80546744B986BC0F30800DA
:10349800FCF7D4FF06464FF064513846FDF726F88E
:1034A80001463046FCF71AFF4FF07E51FCF716FF35
:1034B80001462846FDF71AF8054674E0674B1B6875
:1034C80013F0200F2CD0DFF89481D8F80030C3F324
:1034D800C1036448D840FCF7B1FF05463046FCF705
:1034E800ADFF01462846FDF7B5F80546D8F838007F
:1034F800C0F30800FCF7A2FF06464FF064513846B7
:10350800FCF7F4FF01463046FCF7E8FE4FF07E5129
:10351800FCF7E4FE01462846FCF7E8FF054642E0D2
:103528003046FCF78BFF01464F48FDF793F80546F8
:103538004A4B986BC0F30800FCF780FF06464FF033
:1035480064513846FCF7D2FF01463046FCF7C6FE08
:103558004FF07E51FCF7C2FE01462846FCF7C6FF35
:10356800054620E03046FCF769FF01463C48FDF778
:1035780071F80546394B986BC0F30800FCF75EFFFD
:1035880006464FF064513846FCF7B0FF0146304616
:10359800FCF7A4FE4FF07E51FCF7A0FE014628463A
:1035A800FCF7A4FF05462D4EB06BC0F34620FCF790
:1035B80045FF4FF07E51FCF791FE01462846FDF786
:1035C80049F8FDF7E3F82060B06BC0F30640FCF75C
:1035D80035FF4FF07E51FCF781FE01462846FDF786
:1035E80039F8FDF7D3F86060B06BC0F30660FCF7FC
:1035F80025FF4FF07E51FCF771FE01462846FDF786
:1036080029F8FDF7C3F8A060BDE8F0813046FCF763
:1036180015FF01461548FDF71DF805460F4B986B39
:10362800C0F30800FCF70AFF06464FF0645138461D
:10363800FCF75CFF01463046FCF750FE4FF07E5128
:10364800FCF74CFE01462846FCF750FF0546AAE762
:10365800002323606360A360D6E700BF00440258DC
:103668000024744A0090D0030024744C0024F44AC7
:103678002DE9F0410446864B9D6A9E6AC6F30556BD
:10368800D86AC0F300205B6CC3F3CC0303FB00F0E3
:10369800FCF7D4FE002E00F0F58005F00305074680
:1036A800012D79D0022D00F0CB800DB33046FCF708
:1036B800C5FE01467748FCF7CDFF0546744B186CEC
:1036C800C0F30800FCF7BAFE06464FF064513846CE
:1036D800FCF70CFF01463046FCF700FE4FF07E5128
:1036E800FCF7FCFD01462846FCF700FF054674E0A0
:1036F800674B1B6813F0200F2CD0DFF89481D8F8A3
:103708000030C3F3C1036448D840FCF797FE054670
:103718003046FCF793FE01462846FCF79BFF05461A
:10372800D8F84000C0F30800FCF788FE06464FF0C2
:1037380064513846FCF7DAFE01463046FCF7CEFD08
:103748004FF07E51FCF7CAFD01462846FCF7CEFE35
:10375800054642E03046FCF771FE01464F48FCF74B
:1037680079FF05464A4B186CC0F30800FCF766FE63
:1037780006464FF064513846FCF7B8FE014630461D
:10378800FCF7ACFD4FF07E51FCF7A8FD014628463A
:10379800FCF7ACFE054620E03046FCF74FFE01463C
:1037A8003C48FCF757FF0546394B186CC0F3080036
:1037B800FCF744FE06464FF064513846FCF796FE87
:1037C80001463046FCF78AFD4FF07E51FCF786FD36
:1037D80001462846FCF78AFE05462D4E306CC0F39C
:1037E8004620FCF72BFE4FF07E51FCF777FD014693
:1037F8002846FCF72FFFFCF7C9FF2060306CC0F3A8
:103808000640FCF71BFE4FF07E51FCF767FD0146B2
:103818002846FCF71FFFFCF7B9FF6060306CC0F367
:103828000660FCF70BFE4FF07E51FCF757FD014692
:103838002846FCF70FFFFCF7A9FFA060BDE8F08160
:103848003046FCF7FBFD01461548FCF703FF05462B
:103858000F4B186CC0F30800FCF7F0FD06464FF05C
:1038680064513846FCF742FE01463046FCF736FD07
:103878004FF07E51FCF732FD01462846FCF736FE34
:103888000546AAE7002323606360A360D6E700BF6C
:10389800004402580024744A0090D0030024744C59
:1038A8000024F44A70B586B004460168836802694A
:1038B800134342691343C26913430868884A0240A4
:1038C80013430B602268536823F44053E1680B43A9
:1038D8005360A1692268834B9A4201D0236A194335
:1038E8009068814B03400B4393602268D36A23F0AE
:1038F8000F03616A0B43D36222687C4B9A4221D042
:103908007B4B9A4200F08C807A4B9A4200F0A2805E
:10391800794B9A4200F0B580784B9A4200F0C88003
:10392800774B9A4200F0F480764B9A4200F0198166
:10393800754B9A4200F02C816A4B9A4200F03F8105
:10394800802333E0714B5B6D03F03803282B65D877
:10395800DFE813F029006400640064006400640078
:10396800640064004D016400640064006400640045
:10397800640064002B006400640064006400640058
:10398800640064005E006400640064006400640015
:103998006400640060006400640064006400640003
:1039A800640064006200012300E008234D498A4254
:1039B80000F02F81E069B0F5004F00F0AF81202BB7
:1039C80000F20782202B00F25182DFE813F01E027A
:1039D80024024F024F0227024F024F024F022C02CD
:1039E8004F024F024F024F024F024F024F02310265
:1039F8004F024F024F024F024F024F024F024F0237
:103A08004F024F024F024F024F024F024F023D0238
:103A18001023CBE72023C9E74023C7E78023C5E766
:103A28003A4B5B6D03F00703052B11D8DFE813F061
:103A38000600E10008000A000C000E000023B5E7AC
:103A48000823B3E71023B1E72023AFE74023ADE70E
:103A58008023ABE72D4B5B6D03F00703052B0ED8D6
:103A6800DFE803F003C90507090B00239EE70823D5
:103A78009CE710239AE7202398E7402396E78023C2
:103A880094E7224B5B6D03F00703052B0ED8DFE8A4
:103A980003F003B40507090B002387E7082385E72C
:103AA800102383E7202381E740237FE780237DE7F6
:103AB800164B5B6D03F00703052B0ED8DFE803F008
:103AC800039F0507090B002370E708236EE71023FF
:103AD8006CE720236AE7402368E7802366E700BF96
:103AE800F369FFCF000C0058FFF4FF1100100140EC
:103AF8000044004000480040004C00400050004096
:103B08000014014000780040007C00400044025846
:103B18007D4B5B6D03F03803282B20D8DFE803F0DA
:103B2800151F1F1F1F1F1F1F711F1F1F1F1F1F1F55
:103B3800171F1F1F1F1F1F1F191F1F1F1F1F1F1F9B
:103B48001B1F1F1F1F1F1F1F1D0001232EE70823F8
:103B58002CE710232AE7202328E7402326E78023A1
:103B680024E7694B5B6D03F00703052B0ED8DFE8EC
:103B780003F0034A0507090B002317E7082315E795
:103B8800102313E7202311E740230FE780230DE7D5
:103B98005D4B5B6D03F00703052B0ED8DFE803F0E0
:103BA80003350507090B002300E70823FEE6102369
:103BB800FCE62023FAE64023F8E68023F6E603F540
:103BC8000E339B6D03F00703052B0ED8DFE803F0D7
:103BD800031F0507090B0223E8E60823E6E610237E
:103BE800E4E62023E2E64023E0E68023DEE6042341
:103BF800DCE60423DAE60423D8E60423D6E6042325
:103C0800D4E60423D2E60423D0E60423CEE6042334
:103C1800CCE6202B27D8022BC0F01A81023B1E2BA2
:103C280000F21881DFE813F0500016015600160163
:103C3800160116015B001601160116011601160180
:103C4800160116016000160116011601160116016B
:103C580016011601160116011601160116011601A4
:103C6800160116016C00402B2CD14FF40040626AFB
:103C7800264B33F81220B0FBF2F3656805EB4501DB
:103C8800994200F2E980B3EB053F00F2E780002695
:103C980033463146FCF79AFD090241EA10610002F9
:103CA8006B08C0182A46334641F10001FCF78EFD27
:103CB800A0F54072164B9A4200F2D2802368D86071
:103CC8003046D4E00120D2E0FFF7A6FB0028CED191
:103CD8000020CCE003A8FFF7B1FB0498F6E768469C
:103CE800FFF7C6FC0198F1E7074B1B6813F0200F9C
:103CF80008D0054B1B68C3F3C1030648D840E5E765
:103D08000548B4E70348B2E7004402587047000882
:103D1800FFFC0F000090D00300093D00202B15D8B0
:103D2800202B00F29F80DFE803F031379D9D3A9DFC
:103D38009D9D3F9D9D9D9D9D9D9D449D9D9D9D9D62
:103D48009D9D9D9D9D9D9D9D9D9D5000402B1BD1A2
:103D5800626A4D4B33F81230B0FBF3F062685308D7
:103D680003EB4000B0FBF2F080B2A0F110024FF676
:103D7800EF739A4278D820F00F03C0F3420018433B
:103D88002368D860002072E0012070E0FEF732FD61
:103D98000028DDD100206AE0FEF73EFDF8E703A821
:103DA800FFF74CFB0498F3E76846FFF761FC0198BE
:103DB800EEE7364B1B6813F0200F08D0334B1B6817
:103DC800C3F3C1033248D840E2E73248C0E730487D
:103DD800BEE7402B17D14FF40040626A2A4B33F8F4
:103DE8001230B0FBF3F0636800EB5300B0FBF3F064
:103DF80080B2A0F110024FF6EF739A4241D82368BF
:103E0800D860002033E0012031E0FEF7F3FC002801
:103E1800E3D100202BE0FEF7FFFCF8E703A8FFF74B
:103E28000DFB0498F3E76846FFF722FC0198EEE7DC
:103E3800164B1B6813F0200F08D0144B1B68C3F3F4
:103E4800C1031348D840E2E71248C6E71048C4E760
:103E580001200CE001200AE0012008E0012006E032
:103E6800012004E0012002E0012000E001200123FC
:103E7800A4F86A30A4F8683000232367636706B0A3
:103E880070BD0120F3E700BF7047000800440258E6
:103E98000090D00300093D00836A13F0010F06D09B
:103EA8000268536823F40033C16A0B435360836A82
:103EB80013F0020F06D00268536823F48033016BB5
:103EC8000B435360836A13F0040F06D002685368EB
:103ED80023F48023416B0B435360836A13F0080F6C
:103EE80006D00268536823F40043816B0B43536088
:103EF800836A13F0100F06D00268936823F4805386
:103F0800C16B0B439360836A13F0200F06D00268DD
:103F1800936823F40053016C0B439360836A13F096
:103F2800400F0AD00268536823F48013416C0B4396
:103F38005360436CB3F5801F0BD0836A13F0800F76
:103F480006D00268536823F40023C16C0B43536006
:103F580070470268536823F4C003816C0B435360B5
:103F6800EBE72DE9F84305460F4616469946DDF876
:103F780020802C68E46937EA04030CBF4FF0010C79
:103F88004FF0000CB44541D1B8F1FF3FF1D0FDF737
:103F980051F9A0EB0900404524D8B8F1000F21D011
:103FA8002B681A6812F0040FE3D0DA6912F4006F74
:103FB800DFD04FF400621A622A68136823F4D073C2
:103FC80013602A68936823F0010393602023C5F8DF
:103FD8008430C5F88830C5F88C30002385F88030E7
:103FE800032014E02A68136823F4D07313602A6846
:103FF800936823F0010393602023C5F88430C5F843
:104008008830002385F88030032000E00020BDE8D8
:10401800F88330B583B004460023C0F88C30FDF730
:1040280009F905462268126812F0080F0FD12368B3
:104038001B6813F0040F18D12023C4F88430C4F887
:1040480088300020E06684F8800003B030BD6FF04F
:104058007E430093034600224FF400112046FFF7E9
:1040680080FF0028E3D00320EFE76FF07E43009342
:104078002B4600224FF480012046FFF772FF0028EC
:10408800DAD00320E1E778B310B50446D0F88430DD
:104098000BB32423C4F884302268136823F0010387
:1040A80013602046FFF7FEFB012813D0A36ABBB9B3
:1040B8002268536823F4904353602268936823F07E
:1040C8002A0393602268136843F0010313602046B3
:1040D800FFF79FFF10BD80F88030FCF785FFD8E719
:1040E8002046FFF7D9FEE3E701207047436E2BB95E
:1040F8000123A0F86A30A0F86830704730B403682C
:104108009A68C2F342629968490F094D6B5C1B01BA
:10411800084C615C93FBF1F3A0F86A30AB5C1B01BF
:10412800A25C93FBF2F3A0F8683030BC704700BF84
:10413800904700088847000890F88030012B18D075
:10414800012380F880302423C0F8843003681A687B
:10415800196821F00101196022F00052002343661A
:1041680001680A602022C0F8842080F88030184650
:1041780070470220704738B590F88030012B1DD069
:104188000446012380F880302423C0F88430036873
:104198001D681A6822F001021A600268936823F009
:1041A800604319439160FFF7A1FF23681D60202336
:1041B800C4F88430002084F8800038BD0220FCE771
:1041C80038B590F88030012B1DD00446012380F8C3
:1041D80080302423C0F8843003681D681A6822F0F0
:1041E80001021A600268936823F0606319439160C2
:1041F800FFF77CFF23681D602023C4F8843000206B
:1042080084F8800038BD0220FCE700000023013359
:104218000C4A934211D80269002AF8DA036943F07C
:104228000103036100230133064A934207D8026958
:1042380012F0010FF7D100207047032070470320C8
:10424800704700BF400D030084B010B5044603A8B2
:1042580080E80E00089B012B1DD1A36B23F480334B
:10426800A363E2681D4B1340E360E36823F4401343
:10427800E3600F9B012B09D02046FFF7C7FF069B81
:10428800012B1BD0BDE8104004B07047E36843F42D
:104298008013E360F0E7E36843F04003E3602046FF
:1042A800FFF7B4FF0C9B23B9A36B43F48033A363DC
:1042B800E5E7A36B23F48033A363E0E7E36D9BB2E8
:1042C800E365E26D064B1343E365A36843F0060319
:1042D800A360A36843F02003A360D3E7BFFFBDFF3B
:1042E8000000EE03836823F0010383600020704719
:1042F80008B5C36823F0C043C360012909D069B970
:10430800C36843F08043C3603220FCF799FF002064
:1043180008BDC36843F00053C360F5E70120F7E721
:10432800890141F02001016100230133054A9342CC
:1043380005D8026912F0200FF7D10020704703203A
:10434800704700BF400D03001023036100230133B1
:10435800054A934205D8026912F0100FF7D10020E0
:1043680070470320704700BF400D0300D0F80038A5
:104378001943C0F8001800207047000084B02DE9E8
:10438800F041044607A880E80E00002306E003F188
:10439800400204EB82020021516001330E2BF6D952
:1043A800119F27BBD4F8043843F00203C4F804383B
:1043B800A36B23F40013A363236843F04003236033
:1043C800236843F0800323600023C4F8003E04F50B
:1043D8000065D4F80038C4F800380C9B012B10D1C4
:1043E800099B4BB900212046FFF7C0FF0DE0A36BE6
:1043F80043F40013A363E7E701212046FFF7B6FF64
:1044080003E003212046FFF7B1FF10212046FFF704
:1044180087FF804608B14FF001082046FFF794FF58
:1044280008B14FF0010800232B616B61EB610AE0D2
:10443800C3B94FF00060C2F8000900220A614FF6C4
:104448007F328A6001330799994210D904EB4312ED
:1044580002F51061D2F800090028E9DB0020C2F853
:104468000009EAE74FF09040C2F80009E5E70023A9
:104478000AE0C3B14FF0904CC2F800CB00220261B1
:104488004FF67F3282600133994211D904EB43120F
:1044980002F53060D2F8006B002EEADB4FF0000C1A
:1044A800C2F800CBEAE74FF0006CC2F800CBE5E7B2
:1044B8002B6923F480732B610023A3616FF0804381
:1044C80063610A9B1BB9A36943F01003A361A26946
:1044D8000A4B1343A3610D9B1BB1A36943F0080367
:1044E800A361012F04D04046BDE8F04104B07047F5
:1044F800A269034B1343A361F5E700BF00383C8072
:1045080004000040D0F8003E23F00303C0F8003E4A
:10451800D0F8043843F00203C0F80438002070478C
:10452800DFF834D0FCF7C8FC0C480D490D4A0023CD
:1045380002E0D458C4500433C4188C42F9D30A4A50
:104548000A4C002301E013600432A242FBD300F0BE
:1045580011F8FCF785FC70470000022000000020DD
:104568003C040020B0470008FC040020740A002026
:10457800FEE7000070B50D4E0D4D761BB61006D047
:10458800002455F8043B01349847A642F9D1094E56
:10459800094D761B00F0D4F8B61006D0002455F863
:1045A800043B01349847A642F9D170BDA4470008DE
:1045B800A4470008AC470008A4470008830730B5A3
:1045C80048D0541E002A3FD0CAB2034601E0013C3D
:1045D8003AD303F8012B9D07F9D1032C2DD9CDB27D
:1045E80045EA05250F2C45EA054536D9A4F1100200
:1045F80022F00F0C03F1200EE6444FEA121C03F1DF
:10460800100242E9045542E9025510327245F8D1C8
:104618000CF1010214F00C0F03EB021204F00F0C62
:1046280013D0ACF1040323F003030433134442F81A
:10463800045B9342FBD10CF003042CB1CAB21C44B6
:1046480003F8012B9C42FBD130BD64461346002C75
:10465800F4D1F9E703461446BFE71A46A446E0E753
:10466800024B13B1024800F005B870470000000083
:1046780089460008002301461A46184600F01AB871
:1046880038B5084B084D5B1B9C1007D0043B1D44F4
:10469800013C55F804399847002CF9D1BDE8384059
:1046A80000F054B8B0470008AC470008704700BF96
:1046B800704700BF2DE9F047DFF87CA00646DAF81E
:1046C800000098460F469146FFF7F0FF1B4B1B680A
:1046D800D3F8484124B365681F2D26DC5EB96B1CEE
:1046E8000235DAF80000636044F82570FFF7E0FF50
:1046F8000020BDE8F08704EB85010123C1F888900C
:10470800D4F88821AB401A43022EC4F88821C1F896
:104718000881E4D1D4F88C211343C4F88C31DEE746
:1047280003F5A674C3F84841D5E7DAF80000FFF7A7
:10473800BFFF4FF0FF30DCE738040020984700083F
:10474800F8B500BFF8BC08BC9E467047F8B500BF76
:08475800F8BC08BC9E46704746
:104760000000000001020304010203040607080917
:10477000010002000400060008000A000C001000FE
:10478000200040008000000108040204080101012B
:0C479000010101030701000010000020DF
:08479C0068C0FF7F010000006E
:0847A40069460008BD0200088F
:0447AC009902000866
:1047B0000090D0030090D003010000001000000022
:1047C00000000000FC02002064030020CC03002055
:1047D00000000000000000000000000000000000D9
:1047E00000000000000000000000000000000000C9
:1047F00000000000000000000000000000000000B9
:1048000000000000000000000000000000000000A8
:104810000000000000000000000000000000000098
:104820000000000000000000000000000000000088
:104830000000000000000000000000000000000078
:104840000000000000000000000000000000000068
:104850000000000000000000000000000000000058
:104860000000000000000000010000000000000047
:104870000E33CDAB34126DE6ECDE05000B0000000C
:104880000000000000000000000000000000000028
:104890000000000000000000000000000000000018
:1048A0000000000000000000000000000000000008
:1048B00000000000000000000000000000000000F8
:0C4BE0000000000000000000700A00202F
:104BEC0000000000000000000000000000000000B9
:104BFC0000000000000000000000000000000000A9
:104C0C000000000000000000000000000000000098
:104C1C000000000000000000000000000000000088
:104C2C000000000000000000000000000000000078
:104C3C000000000000000000000000000000000068
:104C4C000000000000000000000000000000000058
:104C5C000000000000000000000000000000000048
:104C6C000000000000000000000000000000000038
:104C7C000000000000000000000000000000000028
:104C8C000000000000000000000000000000000018
:104C9C000000000000000000000000000000000008
:040000050800452981
:00000001FF
